{
  "_format": "hh-sol-artifact-1",
  "contractName": "ProxyWalletFactory",
  "sourceName": "contracts/ProxyWalletFactory.sol",
  "abi": [
    {
      "inputs": [
        {
          "internalType": "address",
          "name": "_operator",
          "type": "address"
        }
      ],
      "stateMutability": "nonpayable",
      "type": "constructor"
    },
    {
      "inputs": [
        {
          "internalType": "address",
          "name": "owner",
          "type": "address"
        }
      ],
      "name": "OwnableInvalidOwner",
      "type": "error"
    },
    {
      "inputs": [
        {
          "internalType": "address",
          "name": "account",
          "type": "address"
        }
      ],
      "name": "OwnableUnauthorizedAccount",
      "type": "error"
    },
    {
      "anonymous": false,
      "inputs": [
        {
          "indexed": true,
          "internalType": "address",
          "name": "previousOwner",
          "type": "address"
        },
        {
          "indexed": true,
          "internalType": "address",
          "name": "newOwner",
          "type": "address"
        }
      ],
      "name": "OwnershipTransferred",
      "type": "event"
    },
    {
      "anonymous": false,
      "inputs": [
        {
          "indexed": true,
          "internalType": "address",
          "name": "user",
          "type": "address"
        },
        {
          "indexed": true,
          "internalType": "address",
          "name": "proxyWallet",
          "type": "address"
        },
        {
          "indexed": false,
          "internalType": "uint256",
          "name": "maxTradeAmount",
          "type": "uint256"
        },
        {
          "indexed": false,
          "internalType": "uint256",
          "name": "maxSlippage",
          "type": "uint256"
        }
      ],
      "name": "ProxyWalletDeployed",
      "type": "event"
    },
    {
      "inputs": [
        {
          "internalType": "address",
          "name": "user",
          "type": "address"
        },
        {
          "internalType": "uint256",
          "name": "maxTradeAmount",
          "type": "uint256"
        },
        {
          "internalType": "uint256",
          "name": "maxSlippage",
          "type": "uint256"
        },
        {
          "internalType": "uint256",
          "name": "dailyTradeLimit",
          "type": "uint256"
        }
      ],
      "name": "deployProxyWallet",
      "outputs": [
        {
          "internalType": "address",
          "name": "proxyWallet",
          "type": "address"
        }
      ],
      "stateMutability": "nonpayable",
      "type": "function"
    },
    {
      "inputs": [
        {
          "internalType": "uint256",
          "name": "",
          "type": "uint256"
        }
      ],
      "name": "deployedProxies",
      "outputs": [
        {
          "internalType": "address",
          "name": "",
          "type": "address"
        }
      ],
      "stateMutability": "view",
      "type": "function"
    },
    {
      "inputs": [],
      "name": "getAllDeployedProxies",
      "outputs": [
        {
          "internalType": "address[]",
          "name": "",
          "type": "address[]"
        }
      ],
      "stateMutability": "view",
      "type": "function"
    },
    {
      "inputs": [],
      "name": "getDeployedCount",
      "outputs": [
        {
          "internalType": "uint256",
          "name": "",
          "type": "uint256"
        }
      ],
      "stateMutability": "view",
      "type": "function"
    },
    {
      "inputs": [
        {
          "internalType": "address",
          "name": "user",
          "type": "address"
        }
      ],
      "name": "getProxyWallet",
      "outputs": [
        {
          "internalType": "address",
          "name": "",
          "type": "address"
        }
      ],
      "stateMutability": "view",
      "type": "function"
    },
    {
      "inputs": [],
      "name": "operator",
      "outputs": [
        {
          "internalType": "address",
          "name": "",
          "type": "address"
        }
      ],
      "stateMutability": "view",
      "type": "function"
    },
    {
      "inputs": [],
      "name": "owner",
      "outputs": [
        {
          "internalType": "address",
          "name": "",
          "type": "address"
        }
      ],
      "stateMutability": "view",
      "type": "function"
    },
    {
      "inputs": [],
      "name": "renounceOwnership",
      "outputs": [],
      "stateMutability": "nonpayable",
      "type": "function"
    },
    {
      "inputs": [
        {
          "internalType": "address",
          "name": "newOwner",
          "type": "address"
        }
      ],
      "name": "transferOwnership",
      "outputs": [],
      "stateMutability": "nonpayable",
      "type": "function"
    },
    {
      "inputs": [
        {
          "internalType": "address",
          "name": "",
          "type": "address"
        }
      ],
      "name": "userProxyWallets",
      "outputs": [
        {
          "internalType": "address",
          "name": "",
          "type": "address"
        }
      ],
      "stateMutability": "view",
      "type": "function"
    }
  ],
  "bytecode": "0x60a060405234801561001057600080fd5b506040516121b63803806121b683398101604081905261002f91610117565b338061005657604051631e4fbdf760e01b8152600060048201526024015b60405180910390fd5b61005f816100c7565b506001600160a01b0381166100b65760405162461bcd60e51b815260206004820152601960248201527f466163746f72793a20496e76616c6964206f70657261746f7200000000000000604482015260640161004d565b6001600160a01b0316608052610147565b600080546001600160a01b038381166001600160a01b0319831681178455604051919092169283917f8be0079c531659141344cd1fd0a4f28419497f9722a3daafe3b4186f6b6457e09190a35050565b60006020828403121561012957600080fd5b81516001600160a01b038116811461014057600080fd5b9392505050565b60805161204e6101686000396000818160d301526102df015261204e6000f3fe608060405234801561001057600080fd5b506004361061009e5760003560e01c80638da5cb5b116100665780638da5cb5b1461012a578063a72b27ef1461013b578063c465db0a1461014e578063c67fb1441461017a578063f2fde38b146101a357600080fd5b80630ff65414146100a35780634f681912146100b9578063570ca735146100ce57806371110eac1461010d578063715018a614610120575b600080fd5b6002546040519081526020015b60405180910390f35b6100c16101b6565b6040516100b0919061055c565b6100f57f000000000000000000000000000000000000000000000000000000000000000081565b6040516001600160a01b0390911681526020016100b0565b6100f561011b3660046105c4565b610218565b610128610456565b005b6000546001600160a01b03166100f5565b6100f56101493660046105fd565b61046a565b6100f561015c366004610616565b6001600160a01b039081166000908152600160205260409020541690565b6100f5610188366004610616565b6001602052600090815260409020546001600160a01b031681565b6101286101b1366004610616565b610494565b6060600280548060200260200160405190810160405280929190818152602001828054801561020e57602002820191906000526020600020905b81546001600160a01b031681526001909101906020018083116101f0575b5050505050905090565b60006102226104d2565b6001600160a01b0385166102755760405162461bcd60e51b81526020600482015260156024820152742330b1ba37b93c9d1024b73b30b634b2103ab9b2b960591b60448201526064015b60405180910390fd5b6001600160a01b0385811660009081526001602052604090205416156102dd5760405162461bcd60e51b815260206004820152601d60248201527f466163746f72793a2050726f787920616c726561647920657869737473000000604482015260640161026c565b7f000000000000000000000000000000000000000000000000000000000000000060405161030a9061054f565b6001600160a01b039091168152602001604051809103906000f080158015610336573d6000803e3d6000fd5b5060405163c6f1373d60e01b81526001600160a01b0387811660048301526024820187905260448201869052606482018590529192509082169063c6f1373d90608401600060405180830381600087803b15801561039357600080fd5b505af11580156103a7573d6000803e3d6000fd5b505050506001600160a01b03858116600081815260016020818152604080842080546001600160a01b03199081169789169788179091556002805494850181559094527f405787fa12a823e0f2b7631cc41b3ba8828b3321ca811111fa75cd3aa3bb5ace9092018054909316851790925580518881529182018790527f7e56992840d69d1c2db777f2d8815bb0e30c35265d93f02eea7562c10eb3dd52910160405180910390a3949350505050565b61045e6104d2565b61046860006104ff565b565b6002818154811061047a57600080fd5b6000918252602090912001546001600160a01b0316905081565b61049c6104d2565b6001600160a01b0381166104c657604051631e4fbdf760e01b81526000600482015260240161026c565b6104cf816104ff565b50565b6000546001600160a01b031633146104685760405163118cdaa760e01b815233600482015260240161026c565b600080546001600160a01b038381166001600160a01b0319831681178455604051919092169283917f8be0079c531659141344cd1fd0a4f28419497f9722a3daafe3b4186f6b6457e09190a35050565b6119e08061063983390190565b602080825282518282018190526000918401906040840190835b8181101561059d5783516001600160a01b0316835260209384019390920191600101610576565b509095945050505050565b80356001600160a01b03811681146105bf57600080fd5b919050565b600080600080608085870312156105da57600080fd5b6105e3856105a8565b966020860135965060408601359560600135945092505050565b60006020828403121561060f57600080fd5b5035919050565b60006020828403121561062857600080fd5b610631826105a8565b939250505056fe60a060405234801561001057600080fd5b506040516119e03803806119e083398101604081905261002f9161011b565b338061005657604051631e4fbdf760e01b8152600060048201526024015b60405180910390fd5b61005f816100cb565b50600180556001600160a01b0381166100ba5760405162461bcd60e51b815260206004820152601d60248201527f50726f787957616c6c65743a20496e76616c6964206f70657261746f72000000604482015260640161004d565b6001600160a01b031660805261014b565b600080546001600160a01b038381166001600160a01b0319831681178455604051919092169283917f8be0079c531659141344cd1fd0a4f28419497f9722a3daafe3b4186f6b6457e09190a35050565b60006020828403121561012d57600080fd5b81516001600160a01b038116811461014457600080fd5b9392505050565b60805161187361016d6000396000818161024d0152610c0a01526118736000f3fe60806040526004361061012e5760003560e01c8063874bad38116100ab578063c669843e1161006f578063c669843e146105a9578063c6f1373d146105c4578063c9602308146105e4578063dd47152214610604578063e086e5ec14610624578063f2fde38b1461063957600080fd5b8063874bad381461031157806389fcd099146103bc5780638da5cb5b146103dc578063c2200e3c146103fa578063c61970961461048157600080fd5b80635c975abb116100f25780635c975abb146102875780636ff1c9bc146102aa578063715018a6146102ca5780637f4ed8ee146102df5780638456cb59146102fc57600080fd5b806316626ab91461013a5780631be50153146101b157806326224c64146101f75780633f4ba83a14610224578063570ca7351461023b57600080fd5b3661013557005b600080fd5b34801561014657600080fd5b5061015a610155366004611649565b610659565b6040516101a89190600060c0820190508251825260208301516020830152604083015115156040830152606083015160608301526080830151608083015260a083015160a083015292915050565b60405180910390f35b3480156101bd57600080fd5b506101e96101cc36600461166b565b600360209081526000928352604080842090915290825290205481565b6040519081526020016101a8565b34801561020357600080fd5b506101e9610212366004611649565b60066020526000908152604090205481565b34801561023057600080fd5b506102396106fa565b005b34801561024757600080fd5b5061026f7f000000000000000000000000000000000000000000000000000000000000000081565b6040516001600160a01b0390911681526020016101a8565b34801561029357600080fd5b5060025460ff1660405190151581526020016101a8565b3480156102b657600080fd5b506102396102c5366004611649565b61070c565b3480156102d657600080fd5b50610239610902565b3480156102eb57600080fd5b506101e968056bc75e2d6310000081565b34801561030857600080fd5b50610239610914565b34801561031d57600080fd5b5061037a61032c36600461169e565b600560208190526000918252604090912080546001820154600283015460038401546004850154958501546006909501546001600160a01b0394851696939094169491939092919060ff1687565b604080516001600160a01b039889168152979096166020880152948601939093526060850191909152608084015260a0830152151560c082015260e0016101a8565b3480156103c857600080fd5b506101e96103d736600461166b565b610924565b3480156103e857600080fd5b506000546001600160a01b031661026f565b34801561040657600080fd5b5061044e610415366004611649565b60046020819052600091825260409091208054600182015460028301546003840154948401546005909401549294919360ff9091169286565b604080519687526020870195909552921515938501939093526060840152608083019190915260a082015260c0016101a8565b34801561048d57600080fd5b5061054861049c36600461169e565b6040805160e081018252600080825260208201819052918101829052606081018290526080810182905260a0810182905260c081019190915250600090815260056020818152604092839020835160e08101855281546001600160a01b0390811682526001830154169281019290925260028101549382019390935260038301546060820152600483015460808201529082015460a082015260069091015460ff16151560c082015290565b6040516101a8919081516001600160a01b0390811682526020808401519091169082015260408083015190820152606080830151908201526080808301519082015260a0828101519082015260c09182015115159181019190915260e00190565b3480156105b557600080fd5b506101e966038d7ea4c6800081565b3480156105d057600080fd5b506102396105df3660046116b7565b610951565b3480156105f057600080fd5b506102396105ff3660046116f0565b610adb565b34801561061057600080fd5b5061023961061f36600461171a565b610bff565b34801561063057600080fd5b506102396111fc565b34801561064557600080fd5b50610239610654366004611649565b61131f565b6106946040518060c0016040528060008152602001600081526020016000151581526020016000815260200160008152602001600081525090565b506001600160a01b0316600090815260046020818152604092839020835160c08101855281548152600182015492810192909252600281015460ff161515938201939093526003830154606082015290820154608082015260059091015460a082015290565b61070261135a565b61070a611387565b565b6107146113d9565b6001600160a01b03811661082c5733600090815260066020526040902054801561082657336000818152600660205260408082208290555190919083908381818185875af1925050503d8060008114610789576040519150601f19603f3d011682016040523d82523d6000602084013e61078e565b606091505b50509050806107e45760405162461bcd60e51b815260206004820181905260248201527f50726f787957616c6c65743a20455448207472616e73666572206661696c656460448201526064015b60405180910390fd5b6040518281526001600160a01b0384169033907ff24ef89f38eadc1bde50701ad6e4d6d11a2dc24f7cf834a486991f38833285049060200160405180910390a3505b506108f6565b6040516370a0823160e01b81523060048201526000906001600160a01b038316906370a0823190602401602060405180830381865afa158015610873573d6000803e3d6000fd5b505050506040513d601f19601f8201168201806040525081019061089791906117e8565b905080156108f4576108b36001600160a01b0383163383611403565b6040518181526001600160a01b0383169033907ff24ef89f38eadc1bde50701ad6e4d6d11a2dc24f7cf834a486991f38833285049060200160405180910390a35b505b6108ff60018055565b50565b61090a61135a565b61070a6000611467565b61091c61135a565b61070a6114b7565b6001600160a01b038083166000908152600360209081526040808320938516835292905220545b92915050565b61095961135a565b6001600160a01b0384166109af5760405162461bcd60e51b815260206004820152601960248201527f50726f787957616c6c65743a20496e76616c696420757365720000000000000060448201526064016107db565b68056bc75e2d63100000831115610a085760405162461bcd60e51b815260206004820152601c60248201527f50726f787957616c6c65743a20416d6f756e7420746f6f20686967680000000060448201526064016107db565b6103e8821115610a5a5760405162461bcd60e51b815260206004820152601e60248201527f50726f787957616c6c65743a20536c69707061676520746f6f2068696768000060448201526064016107db565b6040805160c08101825293845260208085019384526001858301818152606087019485526000608088018181524260a08a019081526001600160a01b039a909a16825260049485905294902096518755945190860155925160028501805460ff19169115159190911790559051600384015551908201559051600590910155565b68056bc75e2d63100000811115610b345760405162461bcd60e51b815260206004820152601c60248201527f50726f787957616c6c65743a20416d6f756e7420746f6f20686967680000000060448201526064016107db565b3360009081526004602052604090206002015460ff16610b965760405162461bcd60e51b815260206004820152601c60248201527f50726f787957616c6c65743a2055736572206e6f74206163746976650000000060448201526064016107db565b3360008181526003602090815260408083206001600160a01b03871680855290835292819020805490869055815181815292830186905293917f10f27b9273c85ae084cc7a534363654a839c4005e5cf4d7d680ce4d7ff653955910160405180910390a3505050565b336001600160a01b037f00000000000000000000000000000000000000000000000000000000000000001614610c775760405162461bcd60e51b815260206004820152601a60248201527f50726f787957616c6c65743a204f6e6c79206f70657261746f7200000000000060448201526064016107db565b6001600160a01b038916600090815260046020526040902060020154899060ff16610ce45760405162461bcd60e51b815260206004820152601c60248201527f50726f787957616c6c65743a2055736572206e6f74206163746976650000000060448201526064016107db565b610cec6113d9565b610cf46114f4565b84421115610d445760405162461bcd60e51b815260206004820152601a60248201527f50726f787957616c6c65743a205472616465206578706972656400000000000060448201526064016107db565b60008481526005602052604090206006015460ff1615610db25760405162461bcd60e51b815260206004820152602360248201527f50726f787957616c6c65743a20547261646520616c72656164792065786563756044820152621d195960ea1b60648201526084016107db565b6001600160a01b03808b166000908152600360209081526040808320938d1683529290522054871115610e325760405162461bcd60e51b815260206004820152602260248201527f50726f787957616c6c65743a20496e73756666696369656e7420617070726f76604482015261185b60f21b60648201526084016107db565b6001600160a01b038a16600090815260046020526040902054871115610ea45760405162461bcd60e51b815260206004820152602160248201527f50726f787957616c6c65743a20416d6f756e742065786365656473206c696d696044820152601d60fa1b60648201526084016107db565b610ead8a611518565b6001600160a01b038a1660009081526004602081905260409091206003810154910154610edb908990611817565b1115610f335760405162461bcd60e51b815260206004820152602160248201527f50726f787957616c6c65743a204461696c79206c696d697420657863656564656044820152601960fa1b60648201526084016107db565b6040518060e001604052808a6001600160a01b03168152602001896001600160a01b03168152602001888152602001878152602001868152602001858152602001600115158152506005600086815260200190815260200160002060008201518160000160006101000a8154816001600160a01b0302191690836001600160a01b0316021790555060208201518160010160006101000a8154816001600160a01b0302191690836001600160a01b0316021790555060408201518160020155606082015181600301556080820151816004015560a0820151816005015560c08201518160060160006101000a81548160ff02191690831515021790555090505060006001600160a01b0316896001600160a01b0316036110f6576001600160a01b038a166000908152600660205260409020548711156110c35760405162461bcd60e51b815260206004820152602560248201527f50726f787957616c6c65743a20496e73756666696369656e74204554482062616044820152646c616e636560d81b60648201526084016107db565b6001600160a01b038a16600090815260066020526040812080548992906110eb90849061182a565b9091555061110b9050565b61110b6001600160a01b038a168b308a61155a565b6001600160a01b038a16600090815260046020819052604082200180548991908390611138908490611817565b90915550506001600160a01b03891661117e576001600160a01b038b1660009081526006602052604081208054839290611173908490611817565b909155506111929050565b6111926001600160a01b038a168c83611403565b60408051898152602081018390529081018690526001600160a01b03808b16918c8216918e16907f7364dff6d4da70bd43aa7f13e86bda9e6ca1b7a91c825ed45b30b2c36de2dd4a9060600160405180910390a4506111f060018055565b50505050505050505050565b6112046113d9565b336000908152600660205260409020548061126d5760405162461bcd60e51b815260206004820152602360248201527f50726f787957616c6c65743a204e6f2062616c616e636520746f20776974686460448201526272617760e81b60648201526084016107db565b336000818152600660205260408082208290555190919083908381818185875af1925050503d80600081146112be576040519150601f19603f3d011682016040523d82523d6000602084013e6112c3565b606091505b50509050806113145760405162461bcd60e51b815260206004820181905260248201527f50726f787957616c6c65743a20455448207472616e73666572206661696c656460448201526064016107db565b505061070a60018055565b61132761135a565b6001600160a01b03811661135157604051631e4fbdf760e01b8152600060048201526024016107db565b6108ff81611467565b6000546001600160a01b0316331461070a5760405163118cdaa760e01b81523360048201526024016107db565b61138f611599565b6002805460ff191690557f5db9ee0a495bf2e6ff9c91a7834c1ba4fdd244a5e8aa4e537bd38aeae4b073aa335b6040516001600160a01b03909116815260200160405180910390a1565b6002600154036113fc57604051633ee5aeb560e01b815260040160405180910390fd5b6002600155565b6040516001600160a01b0383811660248301526044820183905261146291859182169063a9059cbb906064015b604051602081830303815290604052915060e01b6020820180516001600160e01b0383818316178352505050506115bc565b505050565b600080546001600160a01b038381166001600160a01b0319831681178455604051919092169283917f8be0079c531659141344cd1fd0a4f28419497f9722a3daafe3b4186f6b6457e09190a35050565b6114bf6114f4565b6002805460ff191660011790557f62e78cea01bee320cd4e420270b5ea74000d11b0c9f74754ebdbfc544b05a2586113bc3390565b60025460ff161561070a5760405163d93c066560e01b815260040160405180910390fd5b6001600160a01b038116600090815260046020526040902060058101546115429062015180611817565b421061155657600060048201554260058201555b5050565b6040516001600160a01b0384811660248301528381166044830152606482018390526115939186918216906323b872dd90608401611430565b50505050565b60025460ff1661070a57604051638dfc202b60e01b815260040160405180910390fd5b600080602060008451602086016000885af1806115df576040513d6000823e3d81fd5b50506000513d915081156115f7578060011415611604565b6001600160a01b0384163b155b1561159357604051635274afe760e01b81526001600160a01b03851660048201526024016107db565b80356001600160a01b038116811461164457600080fd5b919050565b60006020828403121561165b57600080fd5b6116648261162d565b9392505050565b6000806040838503121561167e57600080fd5b6116878361162d565b91506116956020840161162d565b90509250929050565b6000602082840312156116b057600080fd5b5035919050565b600080600080608085870312156116cd57600080fd5b6116d68561162d565b966020860135965060408601359560600135945092505050565b6000806040838503121561170357600080fd5b61170c8361162d565b946020939093013593505050565b60008060008060008060008060006101008a8c03121561173957600080fd5b6117428a61162d565b985061175060208b0161162d565b975061175e60408b0161162d565b965060608a0135955060808a0135945060a08a0135935060c08a0135925060e08a013567ffffffffffffffff81111561179657600080fd5b8a01601f81018c136117a757600080fd5b803567ffffffffffffffff8111156117be57600080fd5b8c60208284010111156117d057600080fd5b60208201935080925050509295985092959850929598565b6000602082840312156117fa57600080fd5b5051919050565b634e487b7160e01b600052601160045260246000fd5b8082018082111561094b5761094b611801565b8181038181111561094b5761094b61180156fea26469706673582212203720b5131e63ab43af21da04a8068265603db61a3af7954245ea4f2938d77c7664736f6c634300081c0033a26469706673582212201d27d69387195c9d2e033a44ae3d5f0fb9093ca5f2a2a01f765a1d90cc90033f64736f6c634300081c0033",
  "linkReferences": {},
  "deployedLinkReferences": {}
}